:060000000A128A110E280D
:10000800FE00030E83120313C1000A08C2000A127D
:100018008A113B2A0A128A11112883120313C60176
:10002800C701C801C901CA018316BE01BF01C001C9
:1000380083010A128A1120280A128A1171250A12CC
:100048008A110A128A1159250A128A110A128A116A
:1000580091250A128A110A128A114B250A128A114D
:100068000A128A118C210A128A1100300A128A1186
:10007800D9240A128A110B3083160313BB002630C9
:10008800BA005D30B900B90B4728BA0B4728BB0B3B
:100098004728831603133F08B9003908C000003009
:1000A8000A128A11D9240A128A1183163E03031DE3
:1000B8008428BC01BD01831603134008B900BA01A6
:1000C8003908AD003A08AE000A128A11C9230A128B
:1000D8008A11013083160313BC070318BD0A0030C8
:1000E800BD073D08803AFF0083307F02031D7E284C
:1000F80084303C02031C5F2883160313BE01942836
:100108003F08B900BA013908B3003A08B4001930F9
:10011800B5000030B6000A128A111C250A128A118D
:1001280040083F0203189D280A128A1185250A12E1
:100138008A1183163F0840020318A7280A128A1159
:1001480094250A128A11831640083F06031DB62813
:100158000A128A1180250A128A110A128A119D250B
:100168000A128A118312071A871E53280A128A1143
:1001780080250A128A110A128A119D250A128A11EB
:10018800831640083F020318CE280A128A118525D3
:100198000A128A1183163F084002031853280A12CC
:1001A8008A1194250A128A1153282008A6002108CA
:1001B800A7002208A8000310270D280DA900290868
:1001C800AA002A08031DEF280030A0000030A10073
:1001D8000030A20008002308A6002408A70025086C
:1001E800A8000310270D280DA9002908AF002F0823
:1001F800031D05290030A0000030A1000030A20036
:1002080008002F087B3EA6002608AA072208A60099
:100218002608AF002508A6002608AF068030A600ED
:100228002608AF05A117A417FF30A305FF30A405C2
:100238000030A5050030AB000030AC000030AD0048
:100248000730A6002608AE00201C38292308AB0773
:10025800240803110318240A031DAC0725080311F9
:100268000318250A031DAD0701300310A20CA10CC9
:10027800A00CFF3E031D392901300310A30DA40D66
:10028800A50DFF3E031D41290130AE02031D28299B
:100298000930A6002608AE00201C60292308AB07F9
:1002A800240803110318240A031DAC0725080311A9
:1002B8000318250A031DAD0701300310A20CA10C79
:1002C800A00CFF3E031D612901300310AD0CAC0CDE
:1002D800AB0CFF3E031D69290130AE02031D5029F6
:1002E8002B08F0002C08F1002D08F2002A08A600BF
:1002F8002608F3002F08A7002708F4000A128A111D
:100308005D237008A0007108A1007208A20008000F
:1003180088138316A301A4018312031386010130F5
:100328008316A000230A9A290310A00DFF3E031D7F
:1003380098292008A1002108831286040230831618
:100348000313A2008630A1009830A000A00BAA29B0
:10035800A10BAA29A20BAA290000013083160313B6
:10036800A3070318A40A0030A4072408803AFF0052
:1003780080307F02031DC22907302302031C902905
:1003880083120313881708138316A501A601831285
:100398000313860101308316A000250AD52903100E
:1003A800A00DFF3E031DD3292008A10021088312B8
:1003B8008604023083160313A2008630A100983009
:1003C800A000A00BE529A10BE529A20BE529000057
:1003D800013083160313A5070318A60A0030A607E1
:1003E8002608803AFF0080307F02031DFD29073070
:1003F8002502031CCB2983120313081786010A124E
:100408008A1185250A128A11023083160313A20065
:100418008630A1009830A000A00B102AA10B102A4A
:10042800A20B102A00000A128A1180250A128A11CA
:10043800023083160313A2008630A1009830A00072
:10044800A00B242AA10B242AA20B242A0000023084
:1004580083160313A2008630A1009830A000A00BD9
:10046800332AA10B332AA20B332A000008000C1FE1
:10047800762A0A128A117A250A128A1171088312B9
:10048800C4007008C3004408F9004308F8000A12C1
:100498008A11FB240A128A117808A3007908A4009B
:1004A8007A08A500D730A0002330A1003C30A20074
:1004B8000A128A11D9200A128A112008B0002108CC
:1004C800B1002208B2000A128A11E2220A128A1125
:1004D8003008BE003E088316BF000A128A119A250A
:1004E8000A128A118B1CDA2A0A128A1166250A1244
:1004F8008A11003A031D952A033083120313C000A2
:100508008A30BF005530BE00BE0B882ABF0B882A30
:10051800C00B882A013083120313BE003E088316DD
:10052800C0070A128A1166250A128A11023A031DA7
:10053800AF2A033083120313C0008A30BF0055303E
:10054800BE00BE0BA52ABF0BA52AC00BA52A0130E9
:1005580083160313C002831640083F06031DBE2AF4
:100568000A128A118D250A128A110A128A119F25E8
:100578000A128A118312071A871ED62A8316400880
:100588003F020318CC2A0A128A1189250A128A11F5
:1005980083163F0840020318D62A0A128A119725A3
:1005A8000A128A118316BE01BE0A8B1083124208F2
:1005B8008A00410E8300FE0E7E0E09003008B4004A
:1005C8003108B5003208B6000310350D360DB700F6
:1005D8003708BD003D08031DFA2A0030B30000307B
:1005E800B2000030B1000030B00008003008B4009C
:1005F8003108B5003208B60017300310B60CB50C38
:10060800B40CFF3E031D012B3408B7003708B800AF
:10061800B117FF30B005FF30B1050030B205300822
:10062800B9003108BA003208BB00BC018E30BD02E7
:10063800BD1F332B3D08803A8F3E031CF12A013041
:100648000310BC0CBB0CBA0CB90CFF3E031D242BC9
:100658000130B4003408BD070319462B232B18308A
:100668003D020318F12A3D080319462B0130B40056
:100678000310B90DBA0DBB0DBC0DB40B3C2B0130EA
:10068800BD02372B38080319542BB909BA09BB091D
:10069800BC09B90A0319BA0A0319BB0A0319BC0A27
:1006A8003C08B3003B08B2003A08B1003908B00072
:1006B800080073080319652B720871047004031D80
:1006C800782B0030F0000030F1000030F200080014
:1006D8000130F5007508F30701300310F20CF10C36
:1006E800F00CFF3E031D712BFE3072050319932B8E
:1006F8006C2B0130F5007508F3070130F007003066
:1007080003180130F107003003180130F2070130F7
:100718000310F20CF10CF00CFF3E031D8C2BFF3084
:1007280072050319A62B7D2B02307302031CA82B1C
:100738000130F30201300310F00DF10DF20DFF3E10
:10074800031D9F2BF11F982B7318B02BFF30F0055A
:100758007F30F105FF30F2050310F30C7308F50044
:10076800F601F70110300310F50DF60DF70DFF3EF9
:10077800031DB72B7508F0047608F1047708F20416
:10078800740803190800F21708000A30A0000030A6
:10079800A1002E08A3002D08A2000A128A11A52480
:1007A8000A128A112008AF002F08B1000A30A500EC
:1007B8000030A6002E08A3002D08A2006430A00077
:1007C8000030A1000A128A11A5240A128A112108F0
:1007D800A8002008A7000A128A1169240A128A119F
:1007E8002508AF002F08B20000300A128A113825F8
:1007F8000A128A11831631080A128A1127240A124A
:100808008A110D3083160313B000FB30AF00AF0B15
:100818000B2CB00B0B2C01300A128A1138250A1246
:100828008A11831632080A128A1127240A128A1199
:100838000D3083160313B000FB30AF00AF0B222C32
:10084800B00B222C08008312C500482CFC3086000F
:100858000800603086000800DA3086000800F230B0
:1008680086000800663086000800B630860008005A
:10087800BE3086000800E03086000800FE308600A2
:100888000800F630860008004508003A03192A2CAB
:10089800013A03192D2C033A0319302C013A031994
:1008A800332C073A0319362C013A0319392C033A29
:1008B80003193C2C013A03193F2C0F3A0319422C17
:1008C800013A0319452C2A2C0800AA01AB01250876
:1008D80026040319A02CAC01AC0AA61B7F2C0130FE
:1008E8000310A50DA60DFF3E031D742C0130A900B1
:1008F8002908AC07712C01300310AA0DAB0DFF3E7F
:10090800031D802C26082802031D8C2C250827028D
:10091800031C952C2508A7022608031CA803A80277
:100928002A1401300310A60CA50CFF3E031D962CBB
:100938000130AC02031D7F2C2B08A6002A08A50055
:100948000800200821040319D42CA401A40AA11B1F
:10095800BB2C01300310A00DA10DFF3E031DAE2CD2
:1009680001308312C50045088316A407AB2C210863
:100978002302031DC12C20082202031CC92C2008B5
:10098800A2022108031CA303A30201300310A10C37
:10099800A00CFF3E031DCA2C0130A402031DBB2C72
:1009A8002308A1002208A000080083120313C50031
:1009B800C5308316A000200883129F0545088316BA
:1009C800A00002300310A00DFF3E031DE62C03100B
:1009D800200DA100210883129F04133083160313EE
:1009E800A000A00BF52C831203131F150800FD01AE
:1009F800F91F052DF809F909F80A0319F90AFD0183
:100A0800FD0A7808F0007908F100F2018E30FB0049
:100A18007B08F3007D08FC007C08F4000A128A11A8
:100A28005D237008F8007108F9007208FA000800E0
:100A3800B701B80136083802031D242D35083702DE
:100A4800031808003408AE003308AD000A128A11F2
:100A5800C9230A128A11013083160313B707031832
:100A6800B80A0030B8071E2D83120313C500422DA3
:100A78008813081708008817081308004508003A63
:100A880003193C2D013A03193F2D4A2D08008810FF
:100A980007128712831288100A128A119D250A12DA
:100AA8008A110A128A1180250800413083129F009A
:100AB800803083169F0083120C1383160C170B17B4
:100AC8008B1708008312071F6B2D00300800871F43
:100AD8006F2D0230080001300800013083168600AF
:100AE8000813881301170B168B1708001E08F1004E
:100AF80083161E08F000080083120313871288105B
:100B08000800831287168814080083128716881431
:100B18000800831287128810080007178717080033
:100B280083120716080083120716080083120C1395
:0A0B38000800071208000712080069
:02400E00723FFF
:00000001FF
